{
  "_format": "hh-sol-artifact-1",
  "contractName": "CoreLoanPlatform",
  "sourceName": "contracts/CoreLoanPlatform.sol",
  "abi": [
    {
      "inputs": [
        {
          "internalType": "address",
          "name": "_USD",
          "type": "address"
        },
        {
          "internalType": "address",
          "name": "_BTC",
          "type": "address"
        }
      ],
      "stateMutability": "nonpayable",
      "type": "constructor"
    },
    {
      "inputs": [
        {
          "internalType": "address",
          "name": "target",
          "type": "address"
        }
      ],
      "name": "AddressEmptyCode",
      "type": "error"
    },
    {
      "inputs": [
        {
          "internalType": "address",
          "name": "account",
          "type": "address"
        }
      ],
      "name": "AddressInsufficientBalance",
      "type": "error"
    },
    {
      "inputs": [],
      "name": "FailedInnerCall",
      "type": "error"
    },
    {
      "inputs": [
        {
          "internalType": "address",
          "name": "owner",
          "type": "address"
        }
      ],
      "name": "OwnableInvalidOwner",
      "type": "error"
    },
    {
      "inputs": [
        {
          "internalType": "address",
          "name": "account",
          "type": "address"
        }
      ],
      "name": "OwnableUnauthorizedAccount",
      "type": "error"
    },
    {
      "inputs": [
        {
          "internalType": "address",
          "name": "token",
          "type": "address"
        }
      ],
      "name": "SafeERC20FailedOperation",
      "type": "error"
    },
    {
      "anonymous": false,
      "inputs": [
        {
          "indexed": true,
          "internalType": "address",
          "name": "lender",
          "type": "address"
        },
        {
          "indexed": false,
          "internalType": "uint256",
          "name": "amount",
          "type": "uint256"
        }
      ],
      "name": "BTCDeposited",
      "type": "event"
    },
    {
      "anonymous": false,
      "inputs": [
        {
          "indexed": true,
          "internalType": "address",
          "name": "lender",
          "type": "address"
        },
        {
          "indexed": false,
          "internalType": "uint256",
          "name": "amount",
          "type": "uint256"
        }
      ],
      "name": "BTCWithdrawn",
      "type": "event"
    },
    {
      "anonymous": false,
      "inputs": [
        {
          "indexed": true,
          "internalType": "address",
          "name": "user",
          "type": "address"
        },
        {
          "indexed": false,
          "internalType": "uint256",
          "name": "amount",
          "type": "uint256"
        }
      ],
      "name": "CollateralDeposited",
      "type": "event"
    },
    {
      "anonymous": false,
      "inputs": [
        {
          "indexed": true,
          "internalType": "address",
          "name": "user",
          "type": "address"
        },
        {
          "indexed": false,
          "internalType": "uint256",
          "name": "amount",
          "type": "uint256"
        }
      ],
      "name": "CollateralWithdrawn",
      "type": "event"
    },
    {
      "anonymous": false,
      "inputs": [
        {
          "indexed": true,
          "internalType": "address",
          "name": "borrower",
          "type": "address"
        },
        {
          "indexed": false,
          "internalType": "uint256",
          "name": "amount",
          "type": "uint256"
        },
        {
          "indexed": false,
          "internalType": "uint256",
          "name": "interest",
          "type": "uint256"
        }
      ],
      "name": "LoanRepaid",
      "type": "event"
    },
    {
      "anonymous": false,
      "inputs": [
        {
          "indexed": true,
          "internalType": "address",
          "name": "borrower",
          "type": "address"
        },
        {
          "indexed": false,
          "internalType": "uint256",
          "name": "amount",
          "type": "uint256"
        },
        {
          "indexed": false,
          "internalType": "uint256",
          "name": "collateral",
          "type": "uint256"
        }
      ],
      "name": "LoanTaken",
      "type": "event"
    },
    {
      "anonymous": false,
      "inputs": [
        {
          "indexed": true,
          "internalType": "address",
          "name": "previousOwner",
          "type": "address"
        },
        {
          "indexed": true,
          "internalType": "address",
          "name": "newOwner",
          "type": "address"
        }
      ],
      "name": "OwnershipTransferred",
      "type": "event"
    },
    {
      "inputs": [],
      "name": "BORROWABLE_RATIO",
      "outputs": [
        {
          "internalType": "uint256",
          "name": "",
          "type": "uint256"
        }
      ],
      "stateMutability": "view",
      "type": "function"
    },
    {
      "inputs": [],
      "name": "BTC",
      "outputs": [
        {
          "internalType": "contract IERC20",
          "name": "",
          "type": "address"
        }
      ],
      "stateMutability": "view",
      "type": "function"
    },
    {
      "inputs": [],
      "name": "COLLATERAL_RATIO",
      "outputs": [
        {
          "internalType": "uint256",
          "name": "",
          "type": "uint256"
        }
      ],
      "stateMutability": "view",
      "type": "function"
    },
    {
      "inputs": [],
      "name": "INTEREST_RATE",
      "outputs": [
        {
          "internalType": "uint256",
          "name": "",
          "type": "uint256"
        }
      ],
      "stateMutability": "view",
      "type": "function"
    },
    {
      "inputs": [],
      "name": "LOAN_DURATION",
      "outputs": [
        {
          "internalType": "uint256",
          "name": "",
          "type": "uint256"
        }
      ],
      "stateMutability": "view",
      "type": "function"
    },
    {
      "inputs": [],
      "name": "USD",
      "outputs": [
        {
          "internalType": "contract IERC20",
          "name": "",
          "type": "address"
        }
      ],
      "stateMutability": "view",
      "type": "function"
    },
    {
      "inputs": [
        {
          "internalType": "uint256",
          "name": "amount",
          "type": "uint256"
        }
      ],
      "name": "borrowBTC",
      "outputs": [],
      "stateMutability": "nonpayable",
      "type": "function"
    },
    {
      "inputs": [
        {
          "internalType": "address",
          "name": "user",
          "type": "address"
        }
      ],
      "name": "calculateInterest",
      "outputs": [
        {
          "internalType": "uint256",
          "name": "",
          "type": "uint256"
        }
      ],
      "stateMutability": "view",
      "type": "function"
    },
    {
      "inputs": [
        {
          "internalType": "uint256",
          "name": "amount",
          "type": "uint256"
        }
      ],
      "name": "depositBTC",
      "outputs": [],
      "stateMutability": "nonpayable",
      "type": "function"
    },
    {
      "inputs": [
        {
          "internalType": "uint256",
          "name": "amount",
          "type": "uint256"
        }
      ],
      "name": "depositCollateral",
      "outputs": [],
      "stateMutability": "nonpayable",
      "type": "function"
    },
    {
      "inputs": [
        {
          "internalType": "address",
          "name": "user",
          "type": "address"
        }
      ],
      "name": "getBorrowableAmount",
      "outputs": [
        {
          "internalType": "uint256",
          "name": "",
          "type": "uint256"
        }
      ],
      "stateMutability": "view",
      "type": "function"
    },
    {
      "inputs": [],
      "name": "getCurrentApy",
      "outputs": [
        {
          "internalType": "uint256",
          "name": "",
          "type": "uint256"
        }
      ],
      "stateMutability": "pure",
      "type": "function"
    },
    {
      "inputs": [
        {
          "internalType": "address",
          "name": "lender",
          "type": "address"
        }
      ],
      "name": "getLenderBalance",
      "outputs": [
        {
          "internalType": "uint256",
          "name": "",
          "type": "uint256"
        }
      ],
      "stateMutability": "view",
      "type": "function"
    },
    {
      "inputs": [
        {
          "internalType": "address",
          "name": "borrower",
          "type": "address"
        }
      ],
      "name": "getLoanDetails",
      "outputs": [
        {
          "components": [
            {
              "internalType": "uint256",
              "name": "amount",
              "type": "uint256"
            },
            {
              "internalType": "uint256",
              "name": "collateral",
              "type": "uint256"
            },
            {
              "internalType": "uint256",
              "name": "startTimeStamp",
              "type": "uint256"
            },
            {
              "internalType": "bool",
              "name": "active",
              "type": "bool"
            }
          ],
          "internalType": "struct CoreLoanPlatform.Loan",
          "name": "",
          "type": "tuple"
        }
      ],
      "stateMutability": "view",
      "type": "function"
    },
    {
      "inputs": [],
      "name": "getTotalBorrowed",
      "outputs": [
        {
          "internalType": "uint256",
          "name": "",
          "type": "uint256"
        }
      ],
      "stateMutability": "view",
      "type": "function"
    },
    {
      "inputs": [],
      "name": "getTotalStaked",
      "outputs": [
        {
          "internalType": "uint256",
          "name": "",
          "type": "uint256"
        }
      ],
      "stateMutability": "view",
      "type": "function"
    },
    {
      "inputs": [
        {
          "internalType": "address",
          "name": "user",
          "type": "address"
        }
      ],
      "name": "getUserBorrowed",
      "outputs": [
        {
          "internalType": "uint256",
          "name": "",
          "type": "uint256"
        }
      ],
      "stateMutability": "view",
      "type": "function"
    },
    {
      "inputs": [
        {
          "internalType": "address",
          "name": "user",
          "type": "address"
        }
      ],
      "name": "getUserCollateral",
      "outputs": [
        {
          "internalType": "uint256",
          "name": "",
          "type": "uint256"
        }
      ],
      "stateMutability": "view",
      "type": "function"
    },
    {
      "inputs": [
        {
          "internalType": "address",
          "name": "user",
          "type": "address"
        }
      ],
      "name": "getUserStaked",
      "outputs": [
        {
          "internalType": "uint256",
          "name": "",
          "type": "uint256"
        }
      ],
      "stateMutability": "view",
      "type": "function"
    },
    {
      "inputs": [
        {
          "internalType": "address",
          "name": "",
          "type": "address"
        }
      ],
      "name": "lenderBalances",
      "outputs": [
        {
          "internalType": "uint256",
          "name": "",
          "type": "uint256"
        }
      ],
      "stateMutability": "view",
      "type": "function"
    },
    {
      "inputs": [
        {
          "internalType": "address",
          "name": "",
          "type": "address"
        }
      ],
      "name": "loans",
      "outputs": [
        {
          "internalType": "uint256",
          "name": "amount",
          "type": "uint256"
        },
        {
          "internalType": "uint256",
          "name": "collateral",
          "type": "uint256"
        },
        {
          "internalType": "uint256",
          "name": "startTimeStamp",
          "type": "uint256"
        },
        {
          "internalType": "bool",
          "name": "active",
          "type": "bool"
        }
      ],
      "stateMutability": "view",
      "type": "function"
    },
    {
      "inputs": [],
      "name": "owner",
      "outputs": [
        {
          "internalType": "address",
          "name": "",
          "type": "address"
        }
      ],
      "stateMutability": "view",
      "type": "function"
    },
    {
      "inputs": [],
      "name": "renounceOwnership",
      "outputs": [],
      "stateMutability": "nonpayable",
      "type": "function"
    },
    {
      "inputs": [
        {
          "internalType": "address",
          "name": "user",
          "type": "address"
        }
      ],
      "name": "repayLoan",
      "outputs": [],
      "stateMutability": "nonpayable",
      "type": "function"
    },
    {
      "inputs": [
        {
          "internalType": "address",
          "name": "newOwner",
          "type": "address"
        }
      ],
      "name": "transferOwnership",
      "outputs": [],
      "stateMutability": "nonpayable",
      "type": "function"
    },
    {
      "inputs": [
        {
          "internalType": "address",
          "name": "",
          "type": "address"
        }
      ],
      "name": "userCollateral",
      "outputs": [
        {
          "internalType": "uint256",
          "name": "",
          "type": "uint256"
        }
      ],
      "stateMutability": "view",
      "type": "function"
    },
    {
      "inputs": [
        {
          "internalType": "uint256",
          "name": "amount",
          "type": "uint256"
        }
      ],
      "name": "withdrawBTC",
      "outputs": [],
      "stateMutability": "nonpayable",
      "type": "function"
    },
    {
      "inputs": [
        {
          "internalType": "uint256",
          "name": "amount",
          "type": "uint256"
        }
      ],
      "name": "withdrawCollateral",
      "outputs": [],
      "stateMutability": "nonpayable",
      "type": "function"
    }
  ],
  "bytecode": "0x60c0604052600060015560006002553480156200001b57600080fd5b506040516200122d3803806200122d8339810160408190526200003e9162000166565b33806200006657604051631e4fbdf760e01b8152600060048201526024015b60405180910390fd5b6200007181620000f9565b506001600160a01b038216158015906200009357506001600160a01b03811615155b620000e15760405162461bcd60e51b815260206004820152601760248201527f496e76616c696420746f6b656e2061646472657373657300000000000000000060448201526064016200005d565b6001600160a01b039182166080521660a0526200019e565b600080546001600160a01b038381166001600160a01b0319831681178455604051919092169283917f8be0079c531659141344cd1fd0a4f28419497f9722a3daafe3b4186f6b6457e09190a35050565b80516001600160a01b03811681146200016157600080fd5b919050565b600080604083850312156200017a57600080fd5b620001858362000149565b9150620001956020840162000149565b90509250929050565b60805160a05161104d620001e060003960008181610236015281816109770152610a9d0152600081816101f7015281816105e801526106f3015261104d6000f3fe608060405234801561001057600080fd5b50600436106101c45760003560e01c8063a6b6d798116100f9578063e02a4dfd11610097578063e8a7da8e11610071578063e8a7da8e146103a6578063f2fde38b146103ee578063f4925de5146101c9578063f69f1e4a1461040157600080fd5b8063e02a4dfd1461039c578063e11932cf1461036d578063e86ef40b1461036d57600080fd5b8063bd09085a116100d3578063bd09085a1461036d578063d1a4056414610381578063d9e69a0514610394578063dac3fc3f1461036d57600080fd5b8063a6b6d79814610303578063b6f7132f14610331578063bad4a01f1461035a57600080fd5b8063691d1eb31161016657806373b4086b1161014057806373b4086b146102965780638da5cb5b146102f257806390b4588b14610303578063a27a944d1461031157600080fd5b8063691d1eb3146102735780636e35f12414610286578063715018a61461028e57600080fd5b80631bf6c21b116101a25780631bf6c21b146101f25780632792949d146102315780635b72a33a146102585780636112fe2e1461026057600080fd5b80630307c4a1146101c95780630917e776146101c9578063190ef1e6146101df575b600080fd5b60005b6040519081526020015b60405180910390f35b6101f06101ed366004610ef6565b50565b005b6102197f000000000000000000000000000000000000000000000000000000000000000081565b6040516001600160a01b0390911681526020016101d6565b6102197f000000000000000000000000000000000000000000000000000000000000000081565b6101cc600581565b6101f061026e366004610f1f565b610421565b6101cc610281366004610ef6565b61064a565b6101cc605081565b6101f0610682565b6102d06102a4366004610ef6565b600360208190526000918252604090912080546001820154600283015492909301549092919060ff1684565b60408051948552602085019390935291830152151560608201526080016101d6565b6000546001600160a01b0316610219565b6101f06101ed366004610f1f565b6101cc61031f366004610ef6565b60046020526000908152604090205481565b6101cc61033f366004610ef6565b6001600160a01b031660009081526005602052604090205490565b6101f0610368366004610f1f565b610696565b6101cc61037b366004610ef6565b50600090565b6101f061038f366004610f1f565b610777565b6101cc609681565b6101cc62278d0081565b6103b96103b4366004610ef6565b610b0c565b6040516101d6919081518152602080830151908201526040808301519082015260609182015115159181019190915260800190565b6101f06103fc366004610ef6565b610b3e565b6101cc61040f366004610ef6565b60056020526000908152604090205481565b600081116104765760405162461bcd60e51b815260206004820152601d60248201527f416d6f756e74206d7573742062652067726561746572207468616e203000000060448201526064015b60405180910390fd5b336000908152600560205260409020548111156104d55760405162461bcd60e51b815260206004820152601760248201527f496e73756666696369656e7420636f6c6c61746572616c000000000000000000604482015260640161046d565b3360009081526003602081905260408220015460ff166104f6576000610507565b336000908152600360205260409020545b905060006064610518609684610f4e565b6105229190610f65565b336000908152600560205260409020549091508190610542908590610f87565b10156105b65760405162461bcd60e51b815260206004820152602860248201527f5769746864726177616c20776f756c6420756e646572636f6c6c61746572616c60448201527f697a65206c6f616e000000000000000000000000000000000000000000000000606482015260840161046d565b33600090815260056020526040812080548592906105d5908490610f87565b9091555061060f90506001600160a01b037f0000000000000000000000000000000000000000000000000000000000000000163385610b92565b60405183815233907fc30fcfbcaac9e0deffa719714eaa82396ff506a0d0d0eebe170830177288715d906020015b60405180910390a2505050565b6001600160a01b03811660009081526005602052604081205460649061067290605090610f4e565b61067c9190610f65565b92915050565b61068a610c0b565b6106946000610c51565b565b600081116106e65760405162461bcd60e51b815260206004820152601d60248201527f416d6f756e74206d7573742062652067726561746572207468616e2030000000604482015260640161046d565b61071b6001600160a01b037f000000000000000000000000000000000000000000000000000000000000000016333084610cb9565b336000908152600560205260408120805483929061073a908490610f9a565b909155505060405181815233907fd7243f6f8212d5188fd054141cf6ea89cfc0d91facb8c3afe2f88a13584801429060200160405180910390a250565b600081116107c75760405162461bcd60e51b815260206004820152601d60248201527f416d6f756e74206d7573742062652067726561746572207468616e2030000000604482015260640161046d565b336000908152600360208190526040909120015460ff16156108515760405162461bcd60e51b815260206004820152602260248201527f4578697374696e67206c6f616e206d757374206265207265706169642066697260448201527f7374000000000000000000000000000000000000000000000000000000000000606482015260840161046d565b60006064610860609684610f4e565b61086a9190610f65565b336000908152600560205260409020549091508111156108cc5760405162461bcd60e51b815260206004820152601760248201527f496e73756666696369656e7420636f6c6c61746572616c000000000000000000604482015260640161046d565b336000908152600560205260408120546064906108eb90605090610f4e565b6108f59190610f65565b9050808311156109475760405162461bcd60e51b815260206004820152601b60248201527f426f72726f7720616d6f756e742065786365656473206c696d69740000000000604482015260640161046d565b6040517f70a0823100000000000000000000000000000000000000000000000000000000815230600482015283907f00000000000000000000000000000000000000000000000000000000000000006001600160a01b0316906370a0823190602401602060405180830381865afa1580156109c6573d6000803e3d6000fd5b505050506040513d601f19601f820116820180604052508101906109ea9190610fad565b1015610a385760405162461bcd60e51b815260206004820152601c60248201527f496e73756666696369656e742042544320696e20636f6e747261637400000000604482015260640161046d565b604080516080810182528481526020808201858152428385019081526001606085018181523360008181526003968790529790972095518655925190850155516002840155519101805460ff1916911515919091179055610ac4906001600160a01b037f0000000000000000000000000000000000000000000000000000000000000000169085610b92565b82600254610ad29190610f9a565b600255604080518481526020810184905233917e6b9bb4766cf5ab74b890df959e4fad0e54b1c3885e49c9541d36253a6e39e6910161063d565b610b3960405180608001604052806000815260200160008152602001600081526020016000151581525090565b919050565b610b46610c0b565b6001600160a01b038116610b89576040517f1e4fbdf70000000000000000000000000000000000000000000000000000000081526000600482015260240161046d565b6101ed81610c51565b6040516001600160a01b03838116602483015260448201839052610c0691859182169063a9059cbb906064015b604051602081830303815290604052915060e01b6020820180517bffffffffffffffffffffffffffffffffffffffffffffffffffffffff8381831617835250505050610cf8565b505050565b6000546001600160a01b03163314610694576040517f118cdaa700000000000000000000000000000000000000000000000000000000815233600482015260240161046d565b600080546001600160a01b038381167fffffffffffffffffffffffff0000000000000000000000000000000000000000831681178455604051919092169283917f8be0079c531659141344cd1fd0a4f28419497f9722a3daafe3b4186f6b6457e09190a35050565b6040516001600160a01b038481166024830152838116604483015260648201839052610cf29186918216906323b872dd90608401610bbf565b50505050565b6000610d0d6001600160a01b03841683610d74565b90508051600014158015610d32575080806020019051810190610d309190610fc6565b155b15610c06576040517f5274afe70000000000000000000000000000000000000000000000000000000081526001600160a01b038416600482015260240161046d565b6060610d8283836000610d89565b9392505050565b606081471015610dc7576040517fcd78605900000000000000000000000000000000000000000000000000000000815230600482015260240161046d565b600080856001600160a01b03168486604051610de39190610fe8565b60006040518083038185875af1925050503d8060008114610e20576040519150601f19603f3d011682016040523d82523d6000602084013e610e25565b606091505b5091509150610e35868383610e3f565b9695505050505050565b606082610e5457610e4f82610eb4565b610d82565b8151158015610e6b57506001600160a01b0384163b155b15610ead576040517f9996b3150000000000000000000000000000000000000000000000000000000081526001600160a01b038516600482015260240161046d565b5080610d82565b805115610ec45780518082602001fd5b6040517f1425ea4200000000000000000000000000000000000000000000000000000000815260040160405180910390fd5b600060208284031215610f0857600080fd5b81356001600160a01b0381168114610d8257600080fd5b600060208284031215610f3157600080fd5b5035919050565b634e487b7160e01b600052601160045260246000fd5b808202811582820484141761067c5761067c610f38565b600082610f8257634e487b7160e01b600052601260045260246000fd5b500490565b8181038181111561067c5761067c610f38565b8082018082111561067c5761067c610f38565b600060208284031215610fbf57600080fd5b5051919050565b600060208284031215610fd857600080fd5b81518015158114610d8257600080fd5b6000825160005b818110156110095760208186018101518583015201610fef565b50600092019182525091905056fea2646970667358221220be25b10da72fb7299f971eb2d3b89d5aff762887dc2437ae11edb0d78734d38e64736f6c63430008180033",
  "linkReferences": {},
  "deployedLinkReferences": {}
}